{
  "contractName": "Doers",
  "abi": [
    {
      "inputs": [
        {
          "internalType": "uint256",
          "name": "",
          "type": "uint256"
        }
      ],
      "name": "doers",
      "outputs": [
        {
          "internalType": "address",
          "name": "addr",
          "type": "address"
        },
        {
          "internalType": "int256",
          "name": "level",
          "type": "int256"
        },
        {
          "internalType": "uint256",
          "name": "successRate",
          "type": "uint256"
        }
      ],
      "stateMutability": "view",
      "type": "function"
    },
    {
      "inputs": [
        {
          "internalType": "address",
          "name": "_doer",
          "type": "address"
        }
      ],
      "name": "newDoer",
      "outputs": [],
      "stateMutability": "nonpayable",
      "type": "function"
    }
  ],
  "bytecode": "0x608060405234801561001057600080fd5b506103ee806100206000396000f3fe608060405234801561001057600080fd5b50600436106100365760003560e01c80637795f4081461003b578063e1d1fe1f14610057575b600080fd5b61005560048036038101906100509190610257565b610089565b005b610071600480360381019061006c91906102ba565b61019a565b6040516100809392919061031e565b60405180910390f35b600160405180606001604052808373ffffffffffffffffffffffffffffffffffffffff168152602001600081526020016000815250908060018154018082558091505060019003906000526020600020906003020160009091909190915060008201518160000160006101000a81548173ffffffffffffffffffffffffffffffffffffffff021916908373ffffffffffffffffffffffffffffffffffffffff16021790555060208201518160010155604082015181600201555050600180805490506101559190610384565b6000808373ffffffffffffffffffffffffffffffffffffffff1673ffffffffffffffffffffffffffffffffffffffff1681526020019081526020016000208190555050565b600181815481106101aa57600080fd5b90600052602060002090600302016000915090508060000160009054906101000a900473ffffffffffffffffffffffffffffffffffffffff16908060010154908060020154905083565b600080fd5b600073ffffffffffffffffffffffffffffffffffffffff82169050919050565b6000610224826101f9565b9050919050565b61023481610219565b811461023f57600080fd5b50565b6000813590506102518161022b565b92915050565b60006020828403121561026d5761026c6101f4565b5b600061027b84828501610242565b91505092915050565b6000819050919050565b61029781610284565b81146102a257600080fd5b50565b6000813590506102b48161028e565b92915050565b6000602082840312156102d0576102cf6101f4565b5b60006102de848285016102a5565b91505092915050565b6102f081610219565b82525050565b6000819050919050565b610309816102f6565b82525050565b61031881610284565b82525050565b600060608201905061033360008301866102e7565b6103406020830185610300565b61034d604083018461030f565b949350505050565b7f4e487b7100000000000000000000000000000000000000000000000000000000600052601160045260246000fd5b600061038f82610284565b915061039a83610284565b9250828210156103ad576103ac610355565b5b82820390509291505056fea2646970667358221220ae7f17ceb263fee2f2bba9d866e27fd792316a8988049f8abd8ca0456239e39364736f6c634300080d0033",
  "immutableReferences": {},
  "source": "pragma solidity ^0.8.0;\n\ncontract Doers {\n\n    struct Doer {\n        address addr;\n        int level;\n        uint successRate;\n    }\n\n    mapping(address => uint) internal addrToIdx;\n    Doer[] public doers;\n\n    function newDoer(address _doer) public {\n        doers.push(Doer({addr: _doer, level: 0, successRate: 0}));\n        addrToIdx[_doer] = doers.length-1;\n    }\n}\n",
  "sourcePath": "/home/sergey/Projects/private/mp/contracts/Doers.sol",
  "compiler": {
    "name": "solc",
    "version": "0.8.13+commit.abaa5c0e.Emscripten.clang"
  },
  "schemaVersion": "3.4.7",
  "updatedAt": "2022-09-13T18:56:39.409Z",
  "devdoc": {
    "kind": "dev",
    "methods": {},
    "version": 1
  },
  "userdoc": {
    "kind": "user",
    "methods": {},
    "version": 1
  }
}