{
  "contractName": "Mp",
  "abi": [
    {
      "anonymous": false,
      "inputs": [
        {
          "indexed": false,
          "internalType": "uint256",
          "name": "numberInList",
          "type": "uint256"
        }
      ],
      "name": "OrderCancelled",
      "type": "event"
    },
    {
      "anonymous": false,
      "inputs": [
        {
          "indexed": false,
          "internalType": "uint256",
          "name": "numberInList",
          "type": "uint256"
        }
      ],
      "name": "OrderCreated",
      "type": "event"
    },
    {
      "inputs": [
        {
          "internalType": "uint256",
          "name": "",
          "type": "uint256"
        }
      ],
      "name": "orders",
      "outputs": [
        {
          "internalType": "contract Order",
          "name": "",
          "type": "address"
        }
      ],
      "stateMutability": "view",
      "type": "function"
    },
    {
      "inputs": [],
      "name": "ordersAmount",
      "outputs": [
        {
          "internalType": "uint256",
          "name": "",
          "type": "uint256"
        }
      ],
      "stateMutability": "view",
      "type": "function"
    },
    {
      "inputs": [
        {
          "internalType": "uint256",
          "name": "lockValue",
          "type": "uint256"
        },
        {
          "internalType": "string",
          "name": "ipfsDetails",
          "type": "string"
        }
      ],
      "name": "createOrder",
      "outputs": [],
      "stateMutability": "payable",
      "type": "function"
    },
    {
      "inputs": [
        {
          "internalType": "uint256",
          "name": "idx",
          "type": "uint256"
        }
      ],
      "name": "cancelOrder",
      "outputs": [],
      "stateMutability": "nonpayable",
      "type": "function"
    },
    {
      "inputs": [
        {
          "internalType": "uint256",
          "name": "idx",
          "type": "uint256"
        }
      ],
      "name": "acceptOrder",
      "outputs": [],
      "stateMutability": "payable",
      "type": "function"
    },
    {
      "inputs": [
        {
          "internalType": "uint256",
          "name": "idx",
          "type": "uint256"
        },
        {
          "internalType": "address",
          "name": "_addr",
          "type": "address"
        }
      ],
      "name": "chooseCandidate",
      "outputs": [],
      "stateMutability": "nonpayable",
      "type": "function"
    }
  ],
  "bytecode": "0x608060405234801561001057600080fd5b50612b05806100206000396000f3fe6080604052600436106200005c5760003560e01c80630e540b3a1462000061578063514fcac71462000081578063a85c38ef14620000af578063b00dcb6314620000f3578063ee24d38f1462000121578063ef18e9ed1462000151575b600080fd5b6200007f6004803603810190620000799190620007fd565b62000171565b005b3480156200008e57600080fd5b50620000ad6004803603810190620000a7919062000863565b620002ac565b005b348015620000bc57600080fd5b50620000db6004803603810190620000d5919062000863565b6200035a565b604051620000ea919062000920565b60405180910390f35b3480156200010057600080fd5b506200011f600480360381019062000119919062000982565b6200039a565b005b3480156200012e57600080fd5b50620001396200041d565b604051620001489190620009da565b60405180910390f35b6200016f600480360381019062000169919062000863565b62000429565b005b60003411620001b7576040517f08c379a0000000000000000000000000000000000000000000000000000000008152600401620001ae9062000a58565b60405180910390fd5b6000348383604051620001ca906200063e565b620001d792919062000afc565b6040518091039082f0905080158015620001f5573d6000803e3d6000fd5b5090506000819080600181540180825580915050600190039060005260206000200160009091909190916101000a81548173ffffffffffffffffffffffffffffffffffffffff021916908373ffffffffffffffffffffffffffffffffffffffff1602179055507f7e82078c35b6665b9d320ebeaa6c266960fad5b802c5558cf7df60c4769af95b600160008054905062000290919062000b5f565b6040516200029f9190620009da565b60405180910390a1505050565b6000620002b98262000563565b90508073ffffffffffffffffffffffffffffffffffffffff1663ea8a1af06040518163ffffffff1660e01b8152600401600060405180830381600087803b1580156200030457600080fd5b505af115801562000319573d6000803e3d6000fd5b505050507f61b9399f2f0f32ca39ce8d7be32caed5ec22fe07a6daba3a467ed479ec606582826040516200034e9190620009da565b60405180910390a15050565b600081815481106200036b57600080fd5b906000526020600020016000915054906101000a900473ffffffffffffffffffffffffffffffffffffffff1681565b6000620003a78362000563565b90508073ffffffffffffffffffffffffffffffffffffffff16632d0eab5d836040518263ffffffff1660e01b8152600401620003e4919062000bab565b600060405180830381600087803b158015620003ff57600080fd5b505af115801562000414573d6000803e3d6000fd5b50505050505050565b60008080549050905090565b6000620004368262000563565b90508073ffffffffffffffffffffffffffffffffffffffff1663a94ea5cc6040518163ffffffff1660e01b8152600401602060405180830381865afa15801562000484573d6000803e3d6000fd5b505050506040513d601f19601f82011682018060405250810190620004aa919062000bdf565b341015620004ef576040517f08c379a0000000000000000000000000000000000000000000000000000000008152600401620004e69062000c87565b60405180910390fd5b8073ffffffffffffffffffffffffffffffffffffffff1663140a297b34336040518363ffffffff1660e01b81526004016200052b919062000bab565b6000604051808303818588803b1580156200054557600080fd5b505af11580156200055a573d6000803e3d6000fd5b50505050505050565b600080821015620005ab576040517f08c379a0000000000000000000000000000000000000000000000000000000008152600401620005a29062000d1f565b60405180910390fd5b6000805490508210620005f5576040517f08c379a0000000000000000000000000000000000000000000000000000000008152600401620005ec9062000db7565b60405180910390fd5b600082815481106200060c576200060b62000dd9565b5b9060005260206000200160009054906101000a900473ffffffffffffffffffffffffffffffffffffffff169050919050565b611cc78062000e0983390190565b6000604051905090565b600080fd5b600080fd5b6000819050919050565b620006758162000660565b81146200068157600080fd5b50565b60008135905062000695816200066a565b92915050565b600080fd5b600080fd5b6000601f19601f8301169050919050565b7f4e487b7100000000000000000000000000000000000000000000000000000000600052604160045260246000fd5b620006f082620006a5565b810181811067ffffffffffffffff82111715620007125762000711620006b6565b5b80604052505050565b6000620007276200064c565b9050620007358282620006e5565b919050565b600067ffffffffffffffff821115620007585762000757620006b6565b5b6200076382620006a5565b9050602081019050919050565b82818337600083830152505050565b60006200079662000790846200073a565b6200071b565b905082815260208101848484011115620007b557620007b4620006a0565b5b620007c284828562000770565b509392505050565b600082601f830112620007e257620007e16200069b565b5b8135620007f48482602086016200077f565b91505092915050565b6000806040838503121562000817576200081662000656565b5b6000620008278582860162000684565b925050602083013567ffffffffffffffff8111156200084b576200084a6200065b565b5b6200085985828601620007ca565b9150509250929050565b6000602082840312156200087c576200087b62000656565b5b60006200088c8482850162000684565b91505092915050565b600073ffffffffffffffffffffffffffffffffffffffff82169050919050565b6000819050919050565b6000620008e0620008da620008d48462000895565b620008b5565b62000895565b9050919050565b6000620008f482620008bf565b9050919050565b60006200090882620008e7565b9050919050565b6200091a81620008fb565b82525050565b60006020820190506200093760008301846200090f565b92915050565b60006200094a8262000895565b9050919050565b6200095c816200093d565b81146200096857600080fd5b50565b6000813590506200097c8162000951565b92915050565b600080604083850312156200099c576200099b62000656565b5b6000620009ac8582860162000684565b9250506020620009bf858286016200096b565b9150509250929050565b620009d48162000660565b82525050565b6000602082019050620009f16000830184620009c9565b92915050565b600082825260208201905092915050565b7f726577617264206d757374206265207365740000000000000000000000000000600082015250565b600062000a40601283620009f7565b915062000a4d8262000a08565b602082019050919050565b6000602082019050818103600083015262000a738162000a31565b9050919050565b600081519050919050565b60005b8381101562000aa557808201518184015260208101905062000a88565b8381111562000ab5576000848401525b50505050565b600062000ac88262000a7a565b62000ad48185620009f7565b935062000ae681856020860162000a85565b62000af181620006a5565b840191505092915050565b600060408201905062000b136000830185620009c9565b818103602083015262000b27818462000abb565b90509392505050565b7f4e487b7100000000000000000000000000000000000000000000000000000000600052601160045260246000fd5b600062000b6c8262000660565b915062000b798362000660565b92508282101562000b8f5762000b8e62000b30565b5b828203905092915050565b62000ba5816200093d565b82525050565b600060208201905062000bc2600083018462000b9a565b92915050565b60008151905062000bd9816200066a565b92915050565b60006020828403121562000bf85762000bf762000656565b5b600062000c088482850162000bc8565b91505092915050565b7f76616c7565206d7573742062652067726561746572206f7220657175616c207460008201527f68616e206f72646572206c6f636b56616c756500000000000000000000000000602082015250565b600062000c6f603383620009f7565b915062000c7c8262000c11565b604082019050919050565b6000602082019050818103600083015262000ca28162000c60565b9050919050565b7f696e646578206f66206f72646572206d7573742062652067726561746572207460008201527f68616e207a65726f000000000000000000000000000000000000000000000000602082015250565b600062000d07602883620009f7565b915062000d148262000ca9565b604082019050919050565b6000602082019050818103600083015262000d3a8162000cf8565b9050919050565b7f696e646578206f66206f72646572206d757374206265206c657373207468616e60008201527f206f726465727320616d6f756e74000000000000000000000000000000000000602082015250565b600062000d9f602e83620009f7565b915062000dac8262000d41565b604082019050919050565b6000602082019050818103600083015262000dd28162000d90565b9050919050565b7f4e487b7100000000000000000000000000000000000000000000000000000000600052603260045260246000fdfe608060405260405162001cc738038062001cc7833981810160405281019062000029919062000468565b620000496200003d6200010c60201b60201c565b6200011460201b60201c565b620000696200005d620001d860201b60201c565b6200011460201b60201c565b60003411620000af576040517f08c379a0000000000000000000000000000000000000000000000000000000008152600401620000a6906200052f565b60405180910390fd5b816001819055508060039080519060200190620000ce929190620001e0565b50346002819055506000600460146101000a81548160ff02191690836005811115620000ff57620000fe62000551565b5b02179055505050620005e4565b600033905090565b60008060009054906101000a900473ffffffffffffffffffffffffffffffffffffffff169050816000806101000a81548173ffffffffffffffffffffffffffffffffffffffff021916908373ffffffffffffffffffffffffffffffffffffffff1602179055508173ffffffffffffffffffffffffffffffffffffffff168173ffffffffffffffffffffffffffffffffffffffff167f8be0079c531659141344cd1fd0a4f28419497f9722a3daafe3b4186f6b6457e060405160405180910390a35050565b600032905090565b828054620001ee90620005af565b90600052602060002090601f0160209004810192826200021257600085556200025e565b82601f106200022d57805160ff19168380011785556200025e565b828001600101855582156200025e579182015b828111156200025d57825182559160200191906001019062000240565b5b5090506200026d919062000271565b5090565b5b808211156200028c57600081600090555060010162000272565b5090565b6000604051905090565b600080fd5b600080fd5b6000819050919050565b620002b981620002a4565b8114620002c557600080fd5b50565b600081519050620002d981620002ae565b92915050565b600080fd5b600080fd5b6000601f19601f8301169050919050565b7f4e487b7100000000000000000000000000000000000000000000000000000000600052604160045260246000fd5b6200033482620002e9565b810181811067ffffffffffffffff82111715620003565762000355620002fa565b5b80604052505050565b60006200036b62000290565b905062000379828262000329565b919050565b600067ffffffffffffffff8211156200039c576200039b620002fa565b5b620003a782620002e9565b9050602081019050919050565b60005b83811015620003d4578082015181840152602081019050620003b7565b83811115620003e4576000848401525b50505050565b600062000401620003fb846200037e565b6200035f565b90508281526020810184848401111562000420576200041f620002e4565b5b6200042d848285620003b4565b509392505050565b600082601f8301126200044d576200044c620002df565b5b81516200045f848260208601620003ea565b91505092915050565b600080604083850312156200048257620004816200029a565b5b60006200049285828601620002c8565b925050602083015167ffffffffffffffff811115620004b657620004b56200029f565b5b620004c48582860162000435565b9150509250929050565b600082825260208201905092915050565b7f726577617264206d757374206265207365740000000000000000000000000000600082015250565b600062000517601283620004ce565b91506200052482620004df565b602082019050919050565b600060208201905081810360008301526200054a8162000508565b9050919050565b7f4e487b7100000000000000000000000000000000000000000000000000000000600052602160045260246000fd5b7f4e487b7100000000000000000000000000000000000000000000000000000000600052602260045260246000fd5b60006002820490506001821680620005c857607f821691505b602082108103620005de57620005dd62000580565b5b50919050565b6116d380620005f46000396000f3fe6080604052600436106100c25760003560e01c80638da5cb5b1161007f578063c34c08e511610059578063c34c08e514610238578063ea8a1af014610263578063f2fde38b1461027a578063ff8ea646146102a3576100c2565b80638da5cb5b146101b7578063a94ea5cc146101e2578063c19d93fb1461020d576100c2565b8063140a297b146100c7578063228cb733146100e35780632d0eab5d1461010e5780633477ee2e14610137578063715018a6146101755780638a0d44921461018c575b600080fd5b6100e160048036038101906100dc9190610f5f565b6102cc565b005b3480156100ef57600080fd5b506100f86104b2565b6040516101059190610fa5565b60405180910390f35b34801561011a57600080fd5b5061013560048036038101906101309190610f5f565b6104b8565b005b34801561014357600080fd5b5061015e60048036038101906101599190610fec565b61085b565b60405161016c929190611043565b60405180910390f35b34801561018157600080fd5b5061018a6108b8565b005b34801561019857600080fd5b506101a16108cc565b6040516101ae9190611105565b60405180910390f35b3480156101c357600080fd5b506101cc61095a565b6040516101d99190611127565b60405180910390f35b3480156101ee57600080fd5b506101f7610983565b6040516102049190610fa5565b60405180910390f35b34801561021957600080fd5b50610222610989565b60405161022f91906111b9565b60405180910390f35b34801561024457600080fd5b5061024d61099c565b60405161025a9190611127565b60405180910390f35b34801561026f57600080fd5b506102786109c2565b005b34801561028657600080fd5b506102a1600480360381019061029c9190610f5f565b610ad2565b005b3480156102af57600080fd5b506102ca60048036038101906102c59190610f5f565b610b55565b005b60008060058111156102e1576102e0611142565b5b600460149054906101000a900460ff16600581111561030357610302611142565b5b146103565780600460149054906101000a900460ff166040517f77e5c5f200000000000000000000000000000000000000000000000000000000815260040161034d9291906111d4565b60405180910390fd5b60015434101561039b576040517f08c379a00000000000000000000000000000000000000000000000000000000081526004016103929061126f565b60405180910390fd5b600560405180604001604052808473ffffffffffffffffffffffffffffffffffffffff168152602001600115158152509080600181540180825580915050600190039060005260206000200160009091909190915060008201518160000160006101000a81548173ffffffffffffffffffffffffffffffffffffffff021916908373ffffffffffffffffffffffffffffffffffffffff16021790555060208201518160000160146101000a81548160ff0219169083151502179055505050600160058054905061046b91906112be565b600660008473ffffffffffffffffffffffffffffffffffffffff1673ffffffffffffffffffffffffffffffffffffffff168152602001908152602001600020819055505050565b60025481565b6104c0610db2565b60008060058111156104d5576104d4611142565b5b600460149054906101000a900460ff1660058111156104f7576104f6611142565b5b1461054a5780600460149054906101000a900460ff166040517f77e5c5f20000000000000000000000000000000000000000000000000000000081526004016105419291906111d4565b60405180910390fd5b60005b60058054905081116107c55760006005828154811061056f5761056e6112f2565b5b906000526020600020016040518060400160405290816000820160009054906101000a900473ffffffffffffffffffffffffffffffffffffffff1673ffffffffffffffffffffffffffffffffffffffff1673ffffffffffffffffffffffffffffffffffffffff1681526020016000820160149054906101000a900460ff16151515158152505090508373ffffffffffffffffffffffffffffffffffffffff16816000015173ffffffffffffffffffffffffffffffffffffffff160361076857600073ffffffffffffffffffffffffffffffffffffffff16600460009054906101000a900473ffffffffffffffffffffffffffffffffffffffff1673ffffffffffffffffffffffffffffffffffffffff16146106bf576040517f08c379a00000000000000000000000000000000000000000000000000000000081526004016106b69061136d565b60405180910390fd5b83600460006101000a81548173ffffffffffffffffffffffffffffffffffffffff021916908373ffffffffffffffffffffffffffffffffffffffff1602179055506002600460146101000a81548160ff0219169083600581111561072657610725611142565b5b02179055507f4e81c7653c7295d6041ee21b34c6f1132305ba95df3a93437a095e90da5861898460405161075a9190611127565b60405180910390a1506107c5565b8373ffffffffffffffffffffffffffffffffffffffff166108fc6001549081150290604051600060405180830381858888f193505050501580156107b0573d6000803e3d6000fd5b505080806107bd9061138d565b91505061054d565b50600073ffffffffffffffffffffffffffffffffffffffff16600460009054906101000a900473ffffffffffffffffffffffffffffffffffffffff1673ffffffffffffffffffffffffffffffffffffffff1614610857576040517f08c379a000000000000000000000000000000000000000000000000000000000815260040161084e90611447565b60405180910390fd5b5050565b6005818154811061086b57600080fd5b906000526020600020016000915090508060000160009054906101000a900473ffffffffffffffffffffffffffffffffffffffff16908060000160149054906101000a900460ff16905082565b6108c0610db2565b6108ca6000610e30565b565b600380546108d990611496565b80601f016020809104026020016040519081016040528092919081815260200182805461090590611496565b80156109525780601f1061092757610100808354040283529160200191610952565b820191906000526020600020905b81548152906001019060200180831161093557829003601f168201915b505050505081565b60008060009054906101000a900473ffffffffffffffffffffffffffffffffffffffff16905090565b60015481565b600460149054906101000a900460ff1681565b600460009054906101000a900473ffffffffffffffffffffffffffffffffffffffff1681565b6109ca610db2565b60008060058111156109df576109de611142565b5b600460149054906101000a900460ff166005811115610a0157610a00611142565b5b14610a545780600460149054906101000a900460ff166040517f77e5c5f2000000000000000000000000000000000000000000000000000000008152600401610a4b9291906111d4565b60405180910390fd5b6001600460146101000a81548160ff02191690836005811115610a7a57610a79611142565b5b0217905550610a8761095a565b73ffffffffffffffffffffffffffffffffffffffff166108fc6001549081150290604051600060405180830381858888f19350505050158015610ace573d6000803e3d6000fd5b5050565b610ada610db2565b600073ffffffffffffffffffffffffffffffffffffffff168173ffffffffffffffffffffffffffffffffffffffff1603610b49576040517f08c379a0000000000000000000000000000000000000000000000000000000008152600401610b4090611539565b60405180910390fd5b610b5281610e30565b50565b6000806005811115610b6a57610b69611142565b5b600460149054906101000a900460ff166005811115610b8c57610b8b611142565b5b14610bdf5780600460149054906101000a900460ff166040517f77e5c5f2000000000000000000000000000000000000000000000000000000008152600401610bd69291906111d4565b60405180910390fd5b60006005600660008573ffffffffffffffffffffffffffffffffffffffff1673ffffffffffffffffffffffffffffffffffffffff1681526020019081526020016000205481548110610c3457610c336112f2565b5b9060005260206000200190508273ffffffffffffffffffffffffffffffffffffffff168160000160009054906101000a900473ffffffffffffffffffffffffffffffffffffffff1673ffffffffffffffffffffffffffffffffffffffff1614610cd2576040517f08c379a0000000000000000000000000000000000000000000000000000000008152600401610cc9906115a5565b60405180910390fd5b8060000160149054906101000a900460ff16610d23576040517f08c379a0000000000000000000000000000000000000000000000000000000008152600401610d1a90611611565b60405180910390fd5b60008160000160146101000a81548160ff0219169083151502179055508060000160009054906101000a900473ffffffffffffffffffffffffffffffffffffffff1673ffffffffffffffffffffffffffffffffffffffff166108fc6001549081150290604051600060405180830381858888f19350505050158015610dac573d6000803e3d6000fd5b50505050565b610dba610ef4565b73ffffffffffffffffffffffffffffffffffffffff16610dd861095a565b73ffffffffffffffffffffffffffffffffffffffff1614610e2e576040517f08c379a0000000000000000000000000000000000000000000000000000000008152600401610e259061167d565b60405180910390fd5b565b60008060009054906101000a900473ffffffffffffffffffffffffffffffffffffffff169050816000806101000a81548173ffffffffffffffffffffffffffffffffffffffff021916908373ffffffffffffffffffffffffffffffffffffffff1602179055508173ffffffffffffffffffffffffffffffffffffffff168173ffffffffffffffffffffffffffffffffffffffff167f8be0079c531659141344cd1fd0a4f28419497f9722a3daafe3b4186f6b6457e060405160405180910390a35050565b600032905090565b600080fd5b600073ffffffffffffffffffffffffffffffffffffffff82169050919050565b6000610f2c82610f01565b9050919050565b610f3c81610f21565b8114610f4757600080fd5b50565b600081359050610f5981610f33565b92915050565b600060208284031215610f7557610f74610efc565b5b6000610f8384828501610f4a565b91505092915050565b6000819050919050565b610f9f81610f8c565b82525050565b6000602082019050610fba6000830184610f96565b92915050565b610fc981610f8c565b8114610fd457600080fd5b50565b600081359050610fe681610fc0565b92915050565b60006020828403121561100257611001610efc565b5b600061101084828501610fd7565b91505092915050565b61102281610f21565b82525050565b60008115159050919050565b61103d81611028565b82525050565b60006040820190506110586000830185611019565b6110656020830184611034565b9392505050565b600081519050919050565b600082825260208201905092915050565b60005b838110156110a657808201518184015260208101905061108b565b838111156110b5576000848401525b50505050565b6000601f19601f8301169050919050565b60006110d78261106c565b6110e18185611077565b93506110f1818560208601611088565b6110fa816110bb565b840191505092915050565b6000602082019050818103600083015261111f81846110cc565b905092915050565b600060208201905061113c6000830184611019565b92915050565b7f4e487b7100000000000000000000000000000000000000000000000000000000600052602160045260246000fd5b6006811061118257611181611142565b5b50565b600081905061119382611171565b919050565b60006111a382611185565b9050919050565b6111b381611198565b82525050565b60006020820190506111ce60008301846111aa565b92915050565b60006040820190506111e960008301856111aa565b6111f660208301846111aa565b9392505050565b7f76616c7565206d7573742062652067726561746572206f7220657175616c207460008201527f68616e206f72646572206c6f636b56616c756500000000000000000000000000602082015250565b6000611259603383611077565b9150611264826111fd565b604082019050919050565b600060208201905081810360008301526112888161124c565b9050919050565b7f4e487b7100000000000000000000000000000000000000000000000000000000600052601160045260246000fd5b60006112c982610f8c565b91506112d483610f8c565b9250828210156112e7576112e661128f565b5b828203905092915050565b7f4e487b7100000000000000000000000000000000000000000000000000000000600052603260045260246000fd5b7f6578656375746f7220616c726561647920736574000000000000000000000000600082015250565b6000611357601483611077565b915061136282611321565b602082019050919050565b600060208201905081810360008301526113868161134a565b9050919050565b600061139882610f8c565b91507fffffffffffffffffffffffffffffffffffffffffffffffffffffffffffffffff82036113ca576113c961128f565b5b600182019050919050565b7f63616e646964617465207769746820737065636966696564206e6f7420666f7560008201527f6e64000000000000000000000000000000000000000000000000000000000000602082015250565b6000611431602283611077565b915061143c826113d5565b604082019050919050565b6000602082019050818103600083015261146081611424565b9050919050565b7f4e487b7100000000000000000000000000000000000000000000000000000000600052602260045260246000fd5b600060028204905060018216806114ae57607f821691505b6020821081036114c1576114c0611467565b5b50919050565b7f4f776e61626c653a206e6577206f776e657220697320746865207a65726f206160008201527f6464726573730000000000000000000000000000000000000000000000000000602082015250565b6000611523602683611077565b915061152e826114c7565b604082019050919050565b6000602082019050818103600083015261155281611516565b9050919050565b7f696e76616c69642063616e646964617465207370656369666965640000000000600082015250565b600061158f601b83611077565b915061159a82611559565b602082019050919050565b600060208201905081810360008301526115be81611582565b9050919050565b7f616c72656164792072656a656374656400000000000000000000000000000000600082015250565b60006115fb601083611077565b9150611606826115c5565b602082019050919050565b6000602082019050818103600083015261162a816115ee565b9050919050565b7f4f776e61626c653a2063616c6c6572206973206e6f7420746865206f776e6572600082015250565b6000611667602083611077565b915061167282611631565b602082019050919050565b600060208201905081810360008301526116968161165a565b905091905056fea2646970667358221220243e6bee208506ef04057c8bcb7e715f478df94a4dbff5c03cc52efa11b0d62464736f6c634300080d0033a2646970667358221220050aae7e975275cc446d96c7a2beb2fa211d5b0f17b9f21d5ec051cb05beb2a364736f6c634300080d0033",
  "immutableReferences": {},
  "source": "pragma solidity ^0.8.0;\n\n\nimport \"./Order.sol\";\n\ncontract Mp {\n\n    event OrderCreated(uint numberInList);\n    event OrderCancelled(uint numberInList);\n\n    Order[] public orders;\n\n    function ordersAmount() public view returns (uint) {\n        return orders.length;\n    }\n\n    function createOrder(uint lockValue, string memory ipfsDetails) public payable {\n        require(msg.value > 0, \"reward must be set\");\n        Order o = new Order{value: msg.value}(lockValue, ipfsDetails);\n        orders.push(o);\n        emit OrderCreated(orders.length-1);\n    }\n\n    function cancelOrder(uint idx) public {\n        Order o = getOrder(idx);\n        o.cancel();\n        emit OrderCancelled(idx);\n    }\n\n    function acceptOrder(uint idx) public payable {\n        Order o = getOrder(idx);\n        require(msg.value >= o.lockValue(), \"value must be greater or equal than order lockValue\");\n        o.becomeCandidate{value: msg.value}(msg.sender);\n    }\n\n    function getOrder(uint idx) internal view returns (Order) {\n        require(idx >= 0, \"index of order must be greater than zero\");\n        require(idx < orders.length, \"index of order must be less than orders amount\");\n        return orders[idx];\n    }\n\n    function chooseCandidate(uint idx, address _addr) public {\n        Order o = getOrder(idx);\n        o.chooseCandidate(_addr);\n    }\n\n}\n",
  "sourcePath": "/home/sergey/Projects/private/mp/contracts/Mp.sol",
  "compiler": {
    "name": "solc",
    "version": "0.8.13+commit.abaa5c0e.Emscripten.clang"
  },
  "schemaVersion": "3.4.7",
  "updatedAt": "2022-09-13T19:26:14.421Z",
  "devdoc": {
    "kind": "dev",
    "methods": {},
    "version": 1
  },
  "userdoc": {
    "kind": "user",
    "methods": {},
    "version": 1
  }
}