{
  "contractName": "Order",
  "abi": [
    {
      "inputs": [
        {
          "internalType": "uint256",
          "name": "_lockValue",
          "type": "uint256"
        },
        {
          "internalType": "string",
          "name": "_ipfsDetails",
          "type": "string"
        }
      ],
      "stateMutability": "payable",
      "type": "constructor"
    },
    {
      "inputs": [
        {
          "internalType": "enum Order.OrderState",
          "name": "expected",
          "type": "uint8"
        },
        {
          "internalType": "enum Order.OrderState",
          "name": "actual",
          "type": "uint8"
        }
      ],
      "name": "InvalidState",
      "type": "error"
    },
    {
      "anonymous": false,
      "inputs": [
        {
          "indexed": false,
          "internalType": "address",
          "name": "",
          "type": "address"
        }
      ],
      "name": "CandidateChosen",
      "type": "event"
    },
    {
      "anonymous": false,
      "inputs": [
        {
          "indexed": true,
          "internalType": "address",
          "name": "previousOwner",
          "type": "address"
        },
        {
          "indexed": true,
          "internalType": "address",
          "name": "newOwner",
          "type": "address"
        }
      ],
      "name": "OwnershipTransferred",
      "type": "event"
    },
    {
      "inputs": [
        {
          "internalType": "uint256",
          "name": "",
          "type": "uint256"
        }
      ],
      "name": "candidates",
      "outputs": [
        {
          "internalType": "address",
          "name": "addr",
          "type": "address"
        },
        {
          "internalType": "bool",
          "name": "notRejected",
          "type": "bool"
        }
      ],
      "stateMutability": "view",
      "type": "function"
    },
    {
      "inputs": [],
      "name": "executor",
      "outputs": [
        {
          "internalType": "address",
          "name": "",
          "type": "address"
        }
      ],
      "stateMutability": "view",
      "type": "function"
    },
    {
      "inputs": [],
      "name": "ipfsDetails",
      "outputs": [
        {
          "internalType": "string",
          "name": "",
          "type": "string"
        }
      ],
      "stateMutability": "view",
      "type": "function"
    },
    {
      "inputs": [],
      "name": "lockValue",
      "outputs": [
        {
          "internalType": "uint256",
          "name": "",
          "type": "uint256"
        }
      ],
      "stateMutability": "view",
      "type": "function"
    },
    {
      "inputs": [],
      "name": "owner",
      "outputs": [
        {
          "internalType": "address",
          "name": "",
          "type": "address"
        }
      ],
      "stateMutability": "view",
      "type": "function"
    },
    {
      "inputs": [],
      "name": "renounceOwnership",
      "outputs": [],
      "stateMutability": "nonpayable",
      "type": "function"
    },
    {
      "inputs": [],
      "name": "reward",
      "outputs": [
        {
          "internalType": "uint256",
          "name": "",
          "type": "uint256"
        }
      ],
      "stateMutability": "view",
      "type": "function"
    },
    {
      "inputs": [],
      "name": "state",
      "outputs": [
        {
          "internalType": "enum Order.OrderState",
          "name": "",
          "type": "uint8"
        }
      ],
      "stateMutability": "view",
      "type": "function"
    },
    {
      "inputs": [
        {
          "internalType": "address",
          "name": "newOwner",
          "type": "address"
        }
      ],
      "name": "transferOwnership",
      "outputs": [],
      "stateMutability": "nonpayable",
      "type": "function"
    },
    {
      "inputs": [
        {
          "internalType": "address",
          "name": "_cand",
          "type": "address"
        }
      ],
      "name": "becomeCandidate",
      "outputs": [],
      "stateMutability": "payable",
      "type": "function"
    },
    {
      "inputs": [
        {
          "internalType": "address",
          "name": "_cand",
          "type": "address"
        }
      ],
      "name": "cancelBeingCandidate",
      "outputs": [],
      "stateMutability": "nonpayable",
      "type": "function"
    },
    {
      "inputs": [
        {
          "internalType": "address",
          "name": "_addr",
          "type": "address"
        }
      ],
      "name": "chooseCandidate",
      "outputs": [],
      "stateMutability": "nonpayable",
      "type": "function"
    },
    {
      "inputs": [],
      "name": "cancel",
      "outputs": [],
      "stateMutability": "nonpayable",
      "type": "function"
    }
  ],
  "bytecode": "0x608060405260405162001cc738038062001cc7833981810160405281019062000029919062000468565b620000496200003d6200010c60201b60201c565b6200011460201b60201c565b620000696200005d620001d860201b60201c565b6200011460201b60201c565b60003411620000af576040517f08c379a0000000000000000000000000000000000000000000000000000000008152600401620000a6906200052f565b60405180910390fd5b816001819055508060039080519060200190620000ce929190620001e0565b50346002819055506000600460146101000a81548160ff02191690836005811115620000ff57620000fe62000551565b5b02179055505050620005e4565b600033905090565b60008060009054906101000a900473ffffffffffffffffffffffffffffffffffffffff169050816000806101000a81548173ffffffffffffffffffffffffffffffffffffffff021916908373ffffffffffffffffffffffffffffffffffffffff1602179055508173ffffffffffffffffffffffffffffffffffffffff168173ffffffffffffffffffffffffffffffffffffffff167f8be0079c531659141344cd1fd0a4f28419497f9722a3daafe3b4186f6b6457e060405160405180910390a35050565b600032905090565b828054620001ee90620005af565b90600052602060002090601f0160209004810192826200021257600085556200025e565b82601f106200022d57805160ff19168380011785556200025e565b828001600101855582156200025e579182015b828111156200025d57825182559160200191906001019062000240565b5b5090506200026d919062000271565b5090565b5b808211156200028c57600081600090555060010162000272565b5090565b6000604051905090565b600080fd5b600080fd5b6000819050919050565b620002b981620002a4565b8114620002c557600080fd5b50565b600081519050620002d981620002ae565b92915050565b600080fd5b600080fd5b6000601f19601f8301169050919050565b7f4e487b7100000000000000000000000000000000000000000000000000000000600052604160045260246000fd5b6200033482620002e9565b810181811067ffffffffffffffff82111715620003565762000355620002fa565b5b80604052505050565b60006200036b62000290565b905062000379828262000329565b919050565b600067ffffffffffffffff8211156200039c576200039b620002fa565b5b620003a782620002e9565b9050602081019050919050565b60005b83811015620003d4578082015181840152602081019050620003b7565b83811115620003e4576000848401525b50505050565b600062000401620003fb846200037e565b6200035f565b90508281526020810184848401111562000420576200041f620002e4565b5b6200042d848285620003b4565b509392505050565b600082601f8301126200044d576200044c620002df565b5b81516200045f848260208601620003ea565b91505092915050565b600080604083850312156200048257620004816200029a565b5b60006200049285828601620002c8565b925050602083015167ffffffffffffffff811115620004b657620004b56200029f565b5b620004c48582860162000435565b9150509250929050565b600082825260208201905092915050565b7f726577617264206d757374206265207365740000000000000000000000000000600082015250565b600062000517601283620004ce565b91506200052482620004df565b602082019050919050565b600060208201905081810360008301526200054a8162000508565b9050919050565b7f4e487b7100000000000000000000000000000000000000000000000000000000600052602160045260246000fd5b7f4e487b7100000000000000000000000000000000000000000000000000000000600052602260045260246000fd5b60006002820490506001821680620005c857607f821691505b602082108103620005de57620005dd62000580565b5b50919050565b6116d380620005f46000396000f3fe6080604052600436106100c25760003560e01c80638da5cb5b1161007f578063c34c08e511610059578063c34c08e514610238578063ea8a1af014610263578063f2fde38b1461027a578063ff8ea646146102a3576100c2565b80638da5cb5b146101b7578063a94ea5cc146101e2578063c19d93fb1461020d576100c2565b8063140a297b146100c7578063228cb733146100e35780632d0eab5d1461010e5780633477ee2e14610137578063715018a6146101755780638a0d44921461018c575b600080fd5b6100e160048036038101906100dc9190610f5f565b6102cc565b005b3480156100ef57600080fd5b506100f86104b2565b6040516101059190610fa5565b60405180910390f35b34801561011a57600080fd5b5061013560048036038101906101309190610f5f565b6104b8565b005b34801561014357600080fd5b5061015e60048036038101906101599190610fec565b61085b565b60405161016c929190611043565b60405180910390f35b34801561018157600080fd5b5061018a6108b8565b005b34801561019857600080fd5b506101a16108cc565b6040516101ae9190611105565b60405180910390f35b3480156101c357600080fd5b506101cc61095a565b6040516101d99190611127565b60405180910390f35b3480156101ee57600080fd5b506101f7610983565b6040516102049190610fa5565b60405180910390f35b34801561021957600080fd5b50610222610989565b60405161022f91906111b9565b60405180910390f35b34801561024457600080fd5b5061024d61099c565b60405161025a9190611127565b60405180910390f35b34801561026f57600080fd5b506102786109c2565b005b34801561028657600080fd5b506102a1600480360381019061029c9190610f5f565b610ad2565b005b3480156102af57600080fd5b506102ca60048036038101906102c59190610f5f565b610b55565b005b60008060058111156102e1576102e0611142565b5b600460149054906101000a900460ff16600581111561030357610302611142565b5b146103565780600460149054906101000a900460ff166040517f77e5c5f200000000000000000000000000000000000000000000000000000000815260040161034d9291906111d4565b60405180910390fd5b60015434101561039b576040517f08c379a00000000000000000000000000000000000000000000000000000000081526004016103929061126f565b60405180910390fd5b600560405180604001604052808473ffffffffffffffffffffffffffffffffffffffff168152602001600115158152509080600181540180825580915050600190039060005260206000200160009091909190915060008201518160000160006101000a81548173ffffffffffffffffffffffffffffffffffffffff021916908373ffffffffffffffffffffffffffffffffffffffff16021790555060208201518160000160146101000a81548160ff0219169083151502179055505050600160058054905061046b91906112be565b600660008473ffffffffffffffffffffffffffffffffffffffff1673ffffffffffffffffffffffffffffffffffffffff168152602001908152602001600020819055505050565b60025481565b6104c0610db2565b60008060058111156104d5576104d4611142565b5b600460149054906101000a900460ff1660058111156104f7576104f6611142565b5b1461054a5780600460149054906101000a900460ff166040517f77e5c5f20000000000000000000000000000000000000000000000000000000081526004016105419291906111d4565b60405180910390fd5b60005b60058054905081116107c55760006005828154811061056f5761056e6112f2565b5b906000526020600020016040518060400160405290816000820160009054906101000a900473ffffffffffffffffffffffffffffffffffffffff1673ffffffffffffffffffffffffffffffffffffffff1673ffffffffffffffffffffffffffffffffffffffff1681526020016000820160149054906101000a900460ff16151515158152505090508373ffffffffffffffffffffffffffffffffffffffff16816000015173ffffffffffffffffffffffffffffffffffffffff160361076857600073ffffffffffffffffffffffffffffffffffffffff16600460009054906101000a900473ffffffffffffffffffffffffffffffffffffffff1673ffffffffffffffffffffffffffffffffffffffff16146106bf576040517f08c379a00000000000000000000000000000000000000000000000000000000081526004016106b69061136d565b60405180910390fd5b83600460006101000a81548173ffffffffffffffffffffffffffffffffffffffff021916908373ffffffffffffffffffffffffffffffffffffffff1602179055506002600460146101000a81548160ff0219169083600581111561072657610725611142565b5b02179055507f4e81c7653c7295d6041ee21b34c6f1132305ba95df3a93437a095e90da5861898460405161075a9190611127565b60405180910390a1506107c5565b8373ffffffffffffffffffffffffffffffffffffffff166108fc6001549081150290604051600060405180830381858888f193505050501580156107b0573d6000803e3d6000fd5b505080806107bd9061138d565b91505061054d565b50600073ffffffffffffffffffffffffffffffffffffffff16600460009054906101000a900473ffffffffffffffffffffffffffffffffffffffff1673ffffffffffffffffffffffffffffffffffffffff1614610857576040517f08c379a000000000000000000000000000000000000000000000000000000000815260040161084e90611447565b60405180910390fd5b5050565b6005818154811061086b57600080fd5b906000526020600020016000915090508060000160009054906101000a900473ffffffffffffffffffffffffffffffffffffffff16908060000160149054906101000a900460ff16905082565b6108c0610db2565b6108ca6000610e30565b565b600380546108d990611496565b80601f016020809104026020016040519081016040528092919081815260200182805461090590611496565b80156109525780601f1061092757610100808354040283529160200191610952565b820191906000526020600020905b81548152906001019060200180831161093557829003601f168201915b505050505081565b60008060009054906101000a900473ffffffffffffffffffffffffffffffffffffffff16905090565b60015481565b600460149054906101000a900460ff1681565b600460009054906101000a900473ffffffffffffffffffffffffffffffffffffffff1681565b6109ca610db2565b60008060058111156109df576109de611142565b5b600460149054906101000a900460ff166005811115610a0157610a00611142565b5b14610a545780600460149054906101000a900460ff166040517f77e5c5f2000000000000000000000000000000000000000000000000000000008152600401610a4b9291906111d4565b60405180910390fd5b6001600460146101000a81548160ff02191690836005811115610a7a57610a79611142565b5b0217905550610a8761095a565b73ffffffffffffffffffffffffffffffffffffffff166108fc6001549081150290604051600060405180830381858888f19350505050158015610ace573d6000803e3d6000fd5b5050565b610ada610db2565b600073ffffffffffffffffffffffffffffffffffffffff168173ffffffffffffffffffffffffffffffffffffffff1603610b49576040517f08c379a0000000000000000000000000000000000000000000000000000000008152600401610b4090611539565b60405180910390fd5b610b5281610e30565b50565b6000806005811115610b6a57610b69611142565b5b600460149054906101000a900460ff166005811115610b8c57610b8b611142565b5b14610bdf5780600460149054906101000a900460ff166040517f77e5c5f2000000000000000000000000000000000000000000000000000000008152600401610bd69291906111d4565b60405180910390fd5b60006005600660008573ffffffffffffffffffffffffffffffffffffffff1673ffffffffffffffffffffffffffffffffffffffff1681526020019081526020016000205481548110610c3457610c336112f2565b5b9060005260206000200190508273ffffffffffffffffffffffffffffffffffffffff168160000160009054906101000a900473ffffffffffffffffffffffffffffffffffffffff1673ffffffffffffffffffffffffffffffffffffffff1614610cd2576040517f08c379a0000000000000000000000000000000000000000000000000000000008152600401610cc9906115a5565b60405180910390fd5b8060000160149054906101000a900460ff16610d23576040517f08c379a0000000000000000000000000000000000000000000000000000000008152600401610d1a90611611565b60405180910390fd5b60008160000160146101000a81548160ff0219169083151502179055508060000160009054906101000a900473ffffffffffffffffffffffffffffffffffffffff1673ffffffffffffffffffffffffffffffffffffffff166108fc6001549081150290604051600060405180830381858888f19350505050158015610dac573d6000803e3d6000fd5b50505050565b610dba610ef4565b73ffffffffffffffffffffffffffffffffffffffff16610dd861095a565b73ffffffffffffffffffffffffffffffffffffffff1614610e2e576040517f08c379a0000000000000000000000000000000000000000000000000000000008152600401610e259061167d565b60405180910390fd5b565b60008060009054906101000a900473ffffffffffffffffffffffffffffffffffffffff169050816000806101000a81548173ffffffffffffffffffffffffffffffffffffffff021916908373ffffffffffffffffffffffffffffffffffffffff1602179055508173ffffffffffffffffffffffffffffffffffffffff168173ffffffffffffffffffffffffffffffffffffffff167f8be0079c531659141344cd1fd0a4f28419497f9722a3daafe3b4186f6b6457e060405160405180910390a35050565b600032905090565b600080fd5b600073ffffffffffffffffffffffffffffffffffffffff82169050919050565b6000610f2c82610f01565b9050919050565b610f3c81610f21565b8114610f4757600080fd5b50565b600081359050610f5981610f33565b92915050565b600060208284031215610f7557610f74610efc565b5b6000610f8384828501610f4a565b91505092915050565b6000819050919050565b610f9f81610f8c565b82525050565b6000602082019050610fba6000830184610f96565b92915050565b610fc981610f8c565b8114610fd457600080fd5b50565b600081359050610fe681610fc0565b92915050565b60006020828403121561100257611001610efc565b5b600061101084828501610fd7565b91505092915050565b61102281610f21565b82525050565b60008115159050919050565b61103d81611028565b82525050565b60006040820190506110586000830185611019565b6110656020830184611034565b9392505050565b600081519050919050565b600082825260208201905092915050565b60005b838110156110a657808201518184015260208101905061108b565b838111156110b5576000848401525b50505050565b6000601f19601f8301169050919050565b60006110d78261106c565b6110e18185611077565b93506110f1818560208601611088565b6110fa816110bb565b840191505092915050565b6000602082019050818103600083015261111f81846110cc565b905092915050565b600060208201905061113c6000830184611019565b92915050565b7f4e487b7100000000000000000000000000000000000000000000000000000000600052602160045260246000fd5b6006811061118257611181611142565b5b50565b600081905061119382611171565b919050565b60006111a382611185565b9050919050565b6111b381611198565b82525050565b60006020820190506111ce60008301846111aa565b92915050565b60006040820190506111e960008301856111aa565b6111f660208301846111aa565b9392505050565b7f76616c7565206d7573742062652067726561746572206f7220657175616c207460008201527f68616e206f72646572206c6f636b56616c756500000000000000000000000000602082015250565b6000611259603383611077565b9150611264826111fd565b604082019050919050565b600060208201905081810360008301526112888161124c565b9050919050565b7f4e487b7100000000000000000000000000000000000000000000000000000000600052601160045260246000fd5b60006112c982610f8c565b91506112d483610f8c565b9250828210156112e7576112e661128f565b5b828203905092915050565b7f4e487b7100000000000000000000000000000000000000000000000000000000600052603260045260246000fd5b7f6578656375746f7220616c726561647920736574000000000000000000000000600082015250565b6000611357601483611077565b915061136282611321565b602082019050919050565b600060208201905081810360008301526113868161134a565b9050919050565b600061139882610f8c565b91507fffffffffffffffffffffffffffffffffffffffffffffffffffffffffffffffff82036113ca576113c961128f565b5b600182019050919050565b7f63616e646964617465207769746820737065636966696564206e6f7420666f7560008201527f6e64000000000000000000000000000000000000000000000000000000000000602082015250565b6000611431602283611077565b915061143c826113d5565b604082019050919050565b6000602082019050818103600083015261146081611424565b9050919050565b7f4e487b7100000000000000000000000000000000000000000000000000000000600052602260045260246000fd5b600060028204905060018216806114ae57607f821691505b6020821081036114c1576114c0611467565b5b50919050565b7f4f776e61626c653a206e6577206f776e657220697320746865207a65726f206160008201527f6464726573730000000000000000000000000000000000000000000000000000602082015250565b6000611523602683611077565b915061152e826114c7565b604082019050919050565b6000602082019050818103600083015261155281611516565b9050919050565b7f696e76616c69642063616e646964617465207370656369666965640000000000600082015250565b600061158f601b83611077565b915061159a82611559565b602082019050919050565b600060208201905081810360008301526115be81611582565b9050919050565b7f616c72656164792072656a656374656400000000000000000000000000000000600082015250565b60006115fb601083611077565b9150611606826115c5565b602082019050919050565b6000602082019050818103600083015261162a816115ee565b9050919050565b7f4f776e61626c653a2063616c6c6572206973206e6f7420746865206f776e6572600082015250565b6000611667602083611077565b915061167282611631565b602082019050919050565b600060208201905081810360008301526116968161165a565b905091905056fea2646970667358221220243e6bee208506ef04057c8bcb7e715f478df94a4dbff5c03cc52efa11b0d62464736f6c634300080d0033",
  "immutableReferences": {},
  "source": "pragma solidity ^0.8.0;\n\nimport \"./OwnableTxOrigin.sol\";\n\n\ncontract Order is OwnableTxOrigin {\n    enum OrderState {\n        Created,\n        Cancelled,\n        AwaitingExecutorApproval,\n        Accepted,\n        Completed,\n        Failed\n    }\n\n    uint public lockValue;\n    uint public reward;\n    string public ipfsDetails;\n    address public executor;\n    OrderState public state;\n\n    error InvalidState(OrderState expected, OrderState actual);\n\n    struct candidate {\n        address addr;\n        bool notRejected;\n    }\n\n    candidate[] public candidates;\n    mapping(address => uint) private candidateAddrToPosition;\n\n    event CandidateChosen(address);\n\n    constructor(uint _lockValue, string memory _ipfsDetails) payable {\n        require(msg.value > 0, \"reward must be set\");\n        lockValue = _lockValue;\n        ipfsDetails = _ipfsDetails;\n        reward = msg.value;\n        state = OrderState.Created;\n    }\n\n    function becomeCandidate(address _cand) public payable requireState(OrderState.Created) {\n        require(msg.value >= lockValue, \"value must be greater or equal than order lockValue\");\n        candidates.push(candidate({addr: _cand, notRejected: true}));\n        candidateAddrToPosition[_cand] = candidates.length-1;\n    }\n\n    function cancelBeingCandidate(address _cand) public requireState(OrderState.Created) {\n        candidate storage c = candidates[candidateAddrToPosition[_cand]];\n        require(c.addr == _cand, \"invalid candidate specified\");\n        require(c.notRejected, \"already rejected\");\n        c.notRejected = false;\n        payable(c.addr).transfer(lockValue);\n    }\n\n    function chooseCandidate(address _addr) public onlyOwner requireState(OrderState.Created) {\n        for (uint i = 0; i <= candidates.length; i++) {\n            candidate memory c = candidates[i];\n            if (c.addr == _addr) {\n                require(executor == address(0), \"executor already set\");\n                executor = _addr;\n                state = OrderState.AwaitingExecutorApproval;\n                emit CandidateChosen(_addr);\n                break;\n            }\n            payable(_addr).transfer(lockValue);\n        }\n        require(executor == address(0), \"candidate with specified not found\");\n    }\n\n    function cancel() public onlyOwner requireState(OrderState.Created) {\n        state = OrderState.Cancelled;\n        payable(owner()).transfer(lockValue);\n    }\n\n    modifier requireState(OrderState req) {\n        if (state != req) {\n            revert InvalidState(req, state);\n        }\n        _;\n    }\n}\n",
  "sourcePath": "/home/sergey/Projects/private/mp/contracts/Order.sol",
  "compiler": {
    "name": "solc",
    "version": "0.8.13+commit.abaa5c0e.Emscripten.clang"
  },
  "schemaVersion": "3.4.7",
  "updatedAt": "2022-09-13T18:56:39.412Z",
  "devdoc": {
    "kind": "dev",
    "methods": {
      "owner()": {
        "details": "Returns the address of the current owner."
      },
      "renounceOwnership()": {
        "details": "Leaves the contract without owner. It will not be possible to call `onlyOwner` functions anymore. Can only be called by the current owner. NOTE: Renouncing ownership will leave the contract without an owner, thereby removing any functionality that is only available to the owner."
      },
      "transferOwnership(address)": {
        "details": "Transfers ownership of the contract to a new account (`newOwner`). Can only be called by the current owner."
      }
    },
    "version": 1
  },
  "userdoc": {
    "kind": "user",
    "methods": {},
    "version": 1
  }
}